:020000040000FA
:020000000528D1
:040002000034003492
:08000800F6288922E5206E2193
:10001000542270206D224321112078201320D122F8
:100020000A281B2008003F08A7004008A8007B20E2
:10003000DF30CE2208009F229C1B1F2823289F22EE
:100040001C1B5D284B289F221C1B392827289C221B
:100050005B30CE225330CE225730CE225D30CE22BE
:10006000AE01AF01B001B101B430C0000030BF003B
:100070006F289C225B30CE224E30CE225730CE22CB
:100080005D30CE22AA01AB01B001B1010E30C0003B
:100090000130BF006F289C225B30CE224530CE223B
:1000A0005330CE225D30CE22AE01AF01AC01AD01A6
:1000B0005A30C0000030BF006F289C225B30CE2237
:1000C0004E30CE224530CE225D30CE22AA01AB0189
:1000D000AC01AD010030C0000030BF006F28080047
:1000E0009F229C121C121C119C141C109C220800A4
:1000F000BA2082200800AD29BA22A2210800BA0144
:10010000BB0108007F2003102B08BB0703188928B8
:100110008B2801308D2800308D28BA072A08BA07AD
:100120002D08BB070318952897280130992800301F
:100130009928BA072C08BA072F08BB070318A1286B
:10014000A3280130A5280030A528BA072E08BA0731
:100150003108BB070318AD28AF280130B1280030A3
:10016000B128BA073008BA073A08A7003B08A80028
:100170007B2008008B13C120CA20D320DC208B17E2
:1001800008003308AB02031901300030AA0232081C
:10019000AA0208003508AD02031901300030AC0294
:1001A0003408AC0208003708AF02031901300030F0
:1001B000AE023608AE0208003908B1020319013058
:1001C0000030B0023808B00208000030B200003041
:1001D000B3000030B4000030B5000030B60000308D
:1001E000B7000030B8000030B90008008B13FB20C6
:1001F0008B108B1709007D225330CE224530CE2242
:100200005430CE222030CE225A30CE224530CE225B
:100210005230CE224F30CE222030CE221221D12297
:100220006D22080082219D211F1914291E08B20089
:100230009F221E089C22B3004E30CE2286219D2193
:100240001F1920291E08B4009F221E089C22B500F9
:100250004530CE228E219D211F192C291E08B60063
:100260009F221E089C22B7005330CE228A219D2156
:100270001F1938291E08B8009F221E089C22B900A9
:100280005730CE220800922182219D2147291F1933
:1002900047291E08AA009F221E089C22AB00862127
:1002A0009D211F1951291E08AC009F221E089C2267
:1002B000AD008E219D211F195B291E08AE009F22D3
:1002C0001E089C22AF008A219D211F1965291E0846
:1002D000B0009F221E089C22B100080073219821C3
:1002E000AC229D2108007621922108009C229F13B8
:1002F0001F139F221F139F179F111F119F141F1061
:100300009C2208009F111F129F1208009F151F12A8
:100310009F1208009F111F169F1208009F151F169D
:100320009F1208009C221F1408009C221F10080026
:100330000C130C170B178B1708009C221F150800B5
:100340001F1108000030BC000030A3000030A400E2
:100350000030A5000030A6000800AE296430270256
:100360000318BE29B3290A3027020318C329B82964
:10037000013027020318C829BD29CD29A7001A2258
:100380002C224022AE29A700052217222922B329B8
:10039000A700F02102221422B829CE2964302802B5
:1003A0000318DE29D3290A3028020318E129D829A5
:1003B000013028020318E429DD297C28A800112235
:1003C000CE29A800FC21D329A800E721D829013093
:1003D000A607F3290230A607F3290530A607F3295B
:1003E0000630A607F3290A3026028318F829532A73
:1003F0000A30A602FC29532A0130A507082A023038
:10040000A507082A0530A507082A0630A507082AE7
:100410000A30250283180D2A532A0A30A502112A10
:10042000532A0130A4071D2A0230A4071D2A0530D3
:10043000A4071D2A0630A4071D2A0A3024028318A7
:10044000222A532A0A30A402262A532A0130A3075B
:10045000322A0230A307322A0530A307322A063097
:10046000A307322A0A302302030886008318392A98
:10047000532A0A30A3023D2A532A0130BC07492AD5
:100480000230BC07492A0530BC07492A0630BC07A0
:10049000492A0A303C02030886008318502A532A4E
:1004A0000A30A302532A08005C22622268226D22CD
:1004B000732278227D22080000308700A8220800DD
:1004C000071408005C22870038308800A822080042
:1004D0005C220F308800A82208005C2201308800CE
:1004E000A8227D2208005C2206308800A82208008D
:1004F0005C2240308800A82208005C2280308800FE
:10050000A822602208005C22C0308800A822602255
:1005100008009F22003087000030880006149C22CB
:100520000030870000308800962208009F220117C3
:100530008B170B169C2208008312031308008316E6
:10054000031308008312031708008316031708001B
:100550000715AC2207110800A00BAC2A0800523086
:10056000CE225530CE224E30CE222A30CE222A3014
:10057000CE2208002B30CE223C08CC22CE222308EB
:10058000CC22CE222408CC22CE222508CC22CE2278
:100590002608CC22CE220800303E08008800A8227F
:0C05A0000800A00BD12AA10BD12A0800F2
:00000001FF
